:020000040800F2
:10000000E00600208901000861080008C305000817
:10001000C705000899030008051700080000000044
:10002000000000000000000000000000F90E0008C1
:10003000CD03000800000000AD0C000841110008CD
:10004000A3010008A3010008A3010008A301000800
:10005000A3010008A3010008A3010008A3010008F0
:10006000A3010008A3010008A3010008A3010008E0
:10007000A3010008A3010008A3010008A3010008D0
:10008000A3010008A3010008A3010008A3010008C0
:10009000A3010008A3010008A3010008A3010008B0
:1000A000A3010008A3010008A3010008A3010008A0
:1000B000B9110008A3010008ED120008A30100080F
:1000C000A3010008A3010008A3010008A301000880
:1000D000A3010008A3010008A3010008A301000870
:1000E000A3010008A3010008A301000800F002F822
:1000F00000F03AF80AA090E8000C82448344AAF188
:100100000107DA4501D100F02FF8AFF2090EBAE885
:100110000F0013F0010F18BFFB1A43F0010318473B
:100120004817000068170000103A24BF78C878C14B
:10013000FAD8520724BF30C830C144BF04680C60ED
:10014000704700000023002400250026103A28BF35
:1001500078C1FBD8520728BF30C148BF0B60704739
:100160001FB51FBD10B510BD00F031F81146FFF7E7
:10017000F7FF01F0C9FA00F04FF803B4FFF7F2FF00
:1001800003BC00F057F800000948804709480047C1
:10019000FEE7FEE7FEE7FEE7FEE7FEE7FEE7FEE737
:1001A000FEE7FEE704480549054A064B7047000094
:1001B00059110008ED000008E0000020E0060020D2
:1001C000E0020020E002002070477047704775464B
:1001D00000F02CF8AE4605006946534620F00700B3
:1001E000854618B020B5FFF7DDFFBDE820404FF091
:1001F00000064FF000074FF000084FF0000B21F011
:100200000701AC46ACE8C009ACE8C009ACE8C009DD
:10021000ACE8C0098D46704710B50446AFF30080C6
:100220002046BDE81040FFF7A8BF00000048704717
:100230007C00002001491820ABBEFEE7260002002A
:100240007047000010B5C82000F0B8FE00F0D6FAE4
:1002500000F0B0F800F06CFD00BF03480078022801
:10026000FBDB00F077FD10BD0100002010B5044657
:1002700000F0E4FA00F04AFD00BF601E0B49097867
:100280008842FADC00F066FD00F088F800F050FDCE
:1002900000BF06480078A042FBDB00F05BFD5A205F
:1002A00000F08CFE00F0B8FA10BD00000100002044
:1002B00070B504460D46502000F086FE822000F006
:1002C00089FE00F0BBFA00F0EBFD00BF04212248DC
:1002D00000F06AF90028F9D100F002FE4FF47A70BC
:1002E00000F076F84FF47A7000F072F84FF47A70FC
:1002F00000F06EF800F00AFD00BF18480078A04238
:10030000FBDB00F027FD00F055F8502000F05CFE0C
:1003100000F00EFD4FF47A7000F05AF8C82000F09B
:1003200053FE00BF0D480078A842FBDB00F012FD31
:10033000962000F043FE962000F04CFE00F05EFA9E
:1003400000F0BEFD00BF0821034800F02DF9002891
:10035000F9D100F0C5FD70BD001001400100002082
:1003600010B504463C2000F029FE10BD10B500F089
:100370002DF900F0F1FD00F0E1FD00F0C3FB00F00D
:1003800039FC4FF47A7000F023F84FF47A7000F0E3
:100390001FF800F099FE10BD00BFFEE710B5052163
:1003A000034800F0ABFD4FF47A7000F011F810BD77
:1003B0002800002010B50521034800F09FFD4FF4F0
:1003C0007A7000F005F810BD2D0000207047000085
:1003D0004FF47A714143044A116000BF0249096831
:1003E0000029FBD170470000240000200349086069
:1003F00000BF024909680029FBD170472400002092
:100400002DE9F041024600250026002000230024AB
:10041000002791F803C00CF00F0591F803C00CF011
:10042000100CBCF1000F03D091F802C04CEA050596
:1004300091F800C0BCF1000F31D0146800202BE00F
:100440004FF0010C0CFA00F3B1F800C00CEA0306FF
:100450009E4220D183004FF00F0C0CFA03F7BC43EF
:1004600005FA03FC4CEA040491F803C0BCF1280F20
:1004700006D14FF0010C0CFA00FCC2F814C00AE0DF
:1004800091F803C0BCF1480F05D14FF0010C0CFAF4
:1004900000FCC2F810C0401C0828D1D31460B1F889
:1004A00000C0BCF1FF0F34DD546800202EE000F1E5
:1004B000080C4FF0010808FA0CF3B1F800C00CEA80
:1004C00003069E4221D183004FF00F0C0CFA03F774
:1004D000BC4305FA03FC4CEA040491F803C0BCF1E8
:1004E000280F05D100F1080C08FA0CF8C2F81480A6
:1004F00091F803C0BCF1480F07D100F1080C4FF090
:10050000010808FA0CF8C2F81080401C0828CED365
:100510005460BDE8F0810000F0B50A4600230024D5
:100520000021002500F00046B6F1004F02D11D4E1B
:10053000F16901E01B4E7168C0F3034583B200F41A
:100540004016B6F5401F08D121F07061154E76684F
:1005500026F07066134F7E6012E000F48016B6F548
:10056000801F06D1032606FA05F4A14341F070610D
:1005700006E0460D360103FA06F6B14341F070611C
:1005800022B1460D360103FA06F6314300F000466B
:10059000B6F1004F02D1034EF16101E0014E7160EE
:1005A000F0BD0000000001400246002093680B40AF
:1005B0000BB1012000E000207047416170470161EC
:1005C000704700BFFEE700BFFEE7000000B589B03E
:1005D0004FF4E070ADF8040018208DF807000320F8
:1005E0008DF8060001A92A48FFF70AFF01212948D2
:1005F000FFF792FF4FF47C60ADF8040010208DF8F7
:10060000070003208DF8060001A92348FFF7F8FE34
:100610000020ADF81E00ADF81A00C720ADF81C0090
:100620004720ADF8180006A91C4800F08FFF4FF4D2
:100630008070ADF814006020ADF808000020ADF81F
:1006400010000120ADF80A000020ADF80C00ADF854
:100650000E0002A9114800F08BFE0020ADF80E003C
:1006600002A90E4800F0D0FE0020ADF80E0002A94D
:100670000A4800F01BFF0121084800F052FE00F07C
:10068000DDF800F067FB00F02BFC09B000BD0000B6
:1006900000100140000C1A00000C01400004004052
:1006A00010B5044652480078A04202D05048047069
:1006B00000E010BD1A2C7CD2DFE804F0950D10117B
:1006C00015191D252A2E2F33373B3C4F5458595AA4
:1006D0005E626667687CFFF7B5FD85E084E0032015
:1006E000FFF73EFE80E00420FFF7C0FD7CE0C8205D
:1006F00000F064FC78E040F25230FFF769FE3C20E5
:1007000000F05CFC70E006210520FFF7D1FD6BE0F6
:10071000C82000F053FC67E066E00720FFF720FEEA
:1007200062E00820FFF7A2FD5EE0C82000F046FC72
:100730005AE059E00A2000F041FCC82000F044FCD7
:1007400000F0F6FA00BF2B4800780928FBDB00F028
:1007500001FB3C2000F032FC46E00B210A20FFF7B1
:10076000A7FD41E0C82000F029FC3DE03CE03BE073
:100770000D20FFF7F5FD37E00E20FFF777FD33E0A2
:10078000C82000F01BFC2FE02EE02DE0002000F040
:1007900015FCC82000F018FC00F0CAFA00BF15488C
:1007A00000781028FBDB00F0D5FA3C2000F006FCB6
:1007B0001AE018E000F042F800F072FB00BF0421DC
:1007C0000D48FFF7F1FE0028F9D100F089FB00F099
:1007D0009DFA00BF074800781128FBDB00F0BAFA49
:1007E000FFF7E8FD00E000BF00BF00BF61E70000C9
:1007F0000C000020010000200010014010B54FF453
:1008000080710448FFF7D9FE4FF400710148FFF7EB
:10081000D6FE10BD000C014010B54FF480710648A3
:10082000FFF7CDFE4FF400710348FFF7C6FE0A2024
:10083000FFF7CEFD10BD0000000C014010B54FF4D5
:1008400080710648FFF7B9FE4FF400710348FFF7C7
:10085000B4FE0A20FFF7BCFD10BD0000000C0140F3
:10086000704708B54FF4C06000F052F81C208DF8B6
:10087000000001208DF803008DF8010002208DF8A2
:100880000200684600F00CF826208DF800000120D8
:100890008DF801008DF80200684600F001F808BDEF
:1008A00070B5002100230F22C47804B3154C2468CE
:1008B00004F4E064C4F5E064210AC1F10403CA4011
:1008C000447804FA03F184781440214309010E4C62
:1008D0000678A155047804F01F050124AC40057882
:1008E0006D11AD0005F1E025C5F8004109E004787F
:1008F00004F01F050124AC40044D0678761145F83C
:10090000264070BD0CED00E000E400E080E100E076
:1009100002490143024A1160704700000000FA05D5
:100920000CED00E010B5002807DA0A07140E054A9E
:1009300000F00F031B1FD45403E00A07130E024AF2
:10094000135410BD18ED00E000E400E0002004E0C6
:100950000021034A1154411CC8B20928F8DB704732
:100960007000002038B504460120009000201E4988
:100970004870012000902EE0BDF80000204018B122
:1009800001201A49086002E000201849086001208F
:100990001649083108600620FFF728FD0020144999
:1009A000C1F8BC010620FFF721FD01201049C1F864
:1009B000BC010846D0F8300130B10B484078BDF892
:1009C0000010084308494870BDF800004FF6FF7159
:1009D00001EA40000090BDF80000FF28CCDD1020A7
:1009E000FFF704FD38BD000070000020B4812142F3
:1009F0000080214270B5FFF7A9FF00F0A1F8104870
:100A0000C0780F49097940EA01200E490880002486
:100A100010E00D4810F81400401E012101FA00F00A
:100A200008490988084018B9601CC5B2284670BD3D
:100A3000601CC4B2102CECDB00252846F7E7000050
:100A400070000020460000204E00002010B500205D
:100A5000134908601020FFF7C9FC0120FFF782FF4F
:100A60004320FFF77FFF0020FFF77CFF0120FFF707
:100A700079FF0020FFF776FF0020FFF773FF0020CB
:100A8000FFF770FF0020FFF76DFF0020FFF76AFF00
:100A900001200449C1F8B8011020FFF7A7FC10BDE0
:100AA000B88121420080214210B50020134908601E
:100AB0001020FFF79BFC0120FFF754FF4320FFF7B6
:100AC00051FF0020FFF74EFF0020FFF74BFF5A2099
:100AD000FFF748FF5A20FFF745FF5A20FFF742FF74
:100AE0005A20FFF73FFF5A20FFF73CFF012004493F
:100AF000C1F8B8011020FFF779FC10BDB881214280
:100B00000080214208B54FF48050ADF80000282045
:100B10008DF8030003208DF8020069460748FFF7AF
:100B20006FFC4FF46040ADF8000010208DF803001A
:100B300069460248FFF764FC08BD0000000C014054
:100B40001CB500200190012000900020254908607C
:100B500025490878FFF706FF23494878FFF702FF89
:100B60000220019036E00120009027E001201D497D
:100B7000091D08600620FFF739FC00201B49C1F859
:100B8000BC010620FFF732FC01201849C1F8BC0166
:100B90000846D0F8300150B115489DF80410405C6B
:100BA000BDF80010084312499DF804208854BDF890
:100BB00000004FF6FF7101EA40000090BDF8000010
:100BC000FF28D3DD1020FFF711FC9DF80400401C26
:100BD000C0B201909DF804000928C4DB012001493E
:100BE00008601CBDB88121424C00002000802142D9
:100BF0007000002010B500F00BF800F009F800F0CC
:100C000007F8FFF723FF00F025F8FFF74DFF10BDB1
:100C100010B500200D4908601020FFF7E7FB012008
:100C2000FFF7A0FE4220FFF79DFE0020FFF79AFE8F
:100C30000020FFF797FE0020FFF794FE01200449F3
:100C4000C1F8B8011020FFF7D1FB10BDB8812142D7
:100C50000080214210B50020124908600120FFF7F2
:100C600081FE4420FFF77EFE0020FFF77BFE01207F
:100C7000FFF778FEEE20FFF775FE0020FFF772FE0B
:100C80000020FFF76FFE0020FFF76CFE0020FFF74B
:100C900069FE01200449C1F8B8011020FFF7A6FB46
:100CA00010BD0000B8812142008021427047000041
:100CB00000B585B04FF4C060ADF8100018208DF875
:100CC000130003208DF8120004A90E48FFF798FBCB
:100CD0004FF4E13000900020ADF80C000C20ADF88E
:100CE0000A000020ADF80800ADF80600ADF80400D9
:100CF0006946054800F096FC0121034800F078FCA5
:100D000005B000BD000801400038014010B54FF4A7
:100D100080610648FFF751FC4FF400610348FFF77C
:100D20004EFC0A20FFF754FB10BD0000000C0140F0
:100D300010B54FF480610648FFF741FC4FF40061A5
:100D40000348FFF73AFC0A20FFF742FB10BD000002
:100D5000000C014010B54FF480610448FFF72DFCF2
:100D60004FF400610148FFF728FC10BD000C014062
:100D700010B50121044800F009F8012144F23D00BA
:100D800000F014F810BD00000700020029B1064A67
:100D9000D2690243044BDA6104E0034AD269824318
:100DA000014BDA61704700000010024029B1064A89
:100DB00092690243044B9A6104E0034A92698243B8
:100DC000014B9A61704700000010024030B50021CD
:100DD0000022002400232D4D6D6805F00C0121B187
:100DE000042905D0082923D105E0294D056022E01A
:100DF000274D05601FE0254D6D6805F47012234DE9
:100E00006D6805F48034022505EB92421CB9214D32
:100E1000554305600BE01D4D6D6805F400351DB1AF
:100E20001C4D5543056002E0194D5543056002E035
:100E3000174D056000BF00BF144D6D6805F0F0014F
:100E40000909154D6B5C0568DD4045600F4D6D6807
:100E500005F4E061090A104D6B5C4568DD40856072
:100E60000A4D6D6805F46051C90A0B4D6B5C45680D
:100E7000DD40C560054D6D6805F44041890B074DA7
:100E80006B5CC568B5FBF3F5056130BD0010024031
:100E900000127A0000093D000D0000201D00002016
:100EA00010B540210548FFF788FB80210348FFF774
:100EB00086FB0A20FFF78CFA10BD0000000C0140F1
:100EC00010B540210548FFF77AFB80210348FFF762
:100ED00074FB0A20FFF77CFA10BD0000000C0140F3
:100EE00010B540210348FFF768FB80210148FFF758
:100EF00064FB10BD000C0140704700002DE9F0417B
:100F000004460D46002613E014F8011B0A4800F0C1
:100F1000F5FB002701E0781C87B2B7F57A6F05DA98
:100F20004021054800F070FB0028F4D0701CC6B2C8
:100F3000AE42E9DBBDE8F0810044004008B50F2077
:100F4000ADF8000004208DF8030069460148FFF762
:100F500057FA08BD0010014000B585B00C20ADF86F
:100F6000100018208DF8130003208DF8120004A93A
:100F70001048FFF745FA4FF4165000900020ADF8E6
:100F80000C000C20ADF80A000020ADF80800ADF808
:100F90000600ADF804006946074800F043FB012154
:100FA000054800F025FB4021034800F02DFB05B06B
:100FB00000BD0000000801400044004001490880D5
:100FC0007047000034040040014908807047000069
:100FD0003804004001490880704700003C0400408C
:100FE00010B500F001F810BD0CB500200190009084
:100FF0003348006840F480303149086000BF304811
:10100000006800F4003000900198401C01900098A6
:1010100018B90198B0F5A06FF1D12948006800F423
:10102000003010B10120009001E0002000900098F5
:10103000012843D12348006840F01000214908608E
:101040000846006820F0030008600846006840F089
:10105000020008601A48406819494860084640681C
:1010600048600846406840F4806048600846406830
:1010700020F47C1048600846406840F4E81048605E
:101080000846006840F08070086000BF0C480068A7
:1010900000F000700028F9D00948406820F00300F3
:1010A000074948600846406840F00200486000BFB9
:1010B0000348406800F00C000828F9D10CBD00007E
:1010C00000100240002002400EB50020ADF80600DE
:1010D000ADF802006320ADF804002320ADF8000055
:1010E00069464FF0804000F031FA01221146900726
:1010F00000F034F90121880700F013F90EBD10B596
:101100004824B4F1807F01D3012011E024F07F4016
:10111000401E4FF0E02148610F214FF0FF30FFF7F4
:1011200001FC00204FF0E0218861072008610020C9
:1011300008B100BFFEE70321081FFFF7F3FB10BD56
:101140000448006820B103480068401E0149086057
:10115000704700002400002010B51348006840F0DC
:1011600001001149086008464068104908400E49CE
:101170004860084600680E4908400B490860084668
:10118000006820F4802008600846406820F4FE00D3
:1011900048604FF41F008860FFF722FF4FF00060A7
:1011A0000449086010BD0000001002400000FFF874
:1011B000FFFFF6FE08ED00E010B50121880700F002
:1011C000BCF800287AD00121880700F0A7F83C4835
:1011D0000088B0F5FA7F06D1002039490880012047
:1011E0003849087004E036480088401C34490880BB
:1011F000354800781E2808D100203449087032494B
:10120000087001203249087025E0304800781E2817
:1012100010D12F48007801280CD100202C490870EB
:101220002A490870284908702A480078401C294932
:10123000087010E001212848FFF7B6F9012805D110
:1012400021480078401C2049087004E01F480078BD
:10125000401C1E490870214800781E2808D1002033
:101260001F4908701D49087001201E49087025E0BB
:101270001B4800781E2810D11A48007801280CD18C
:10128000002018490870164908701449087016485B
:101290000078401C1449087010E002210E48FFF746
:1012A00083F9012805D10D480078401C0B490870CE
:1012B00004E00B480078401C0949087010BD00008C
:1012C0000A00002004000020070000200600002083
:1012D0000200002000000020001001400900002052
:1012E00008000020030000200100002010B50121AB
:1012F000084800F022F858B10121064800F00EF825
:101300000548006820B104480068401E0249086092
:1013100010BD00000008004024000020CA430282E3
:10132000704721B1028842F00102028004E0028885
:101330004FF6FE731A400280704730B50246002017
:1013400000230024158A05EA0103958905EA0104B2
:1013500013B10CB1012000E0002030BD1AB1838927
:101360000B43838102E083898B43838170470000B4
:1013700070B5002400220023058C4FF6FE76354020
:101380000584028C8388048B4FF68F752C40B51E24
:101390002C400D882C43751E2A400D892A434D8808
:1013A0002A43144DA8420BD0134DA84208D0134D28
:1013B000A84205D0124DA84202D0124DA84213D126
:1013C0004FF6F7752A404D892A434FF6FB752A40A0
:1013D0008D882A434FF6FF652B404FF6FF552B4073
:1013E0008D892B43CD892B4383800483CD888586CB
:1013F000028470BD002C01400034014000400140D7
:10140000004401400048014070B500240022002340
:10141000058C4FF6EF7635400584028C8388048B6B
:1014200048F6FF752C404FF6FF452C400D884FF6CF
:10143000FF7606EA05252C434FF6DF752A400D8915
:1014400006EA05152A434D8806EA05152A43154D77
:10145000A84202D0144DA8421DD14FF67F752A40F4
:101460004D894FF6FF7606EA05152A434FF6BF75FC
:101470002A408D8806EA05152A434FF6FF352B4092
:101480004FF2FF752B408D8906EA85052B43CD89E8
:1014900006EA85052B4383800483CD880587028473
:1014A00070BD0000002C01400034014070B50024E4
:1014B00000220023058C4FF6FF6635400584028C20
:1014C0008388848B4FF68F752C404FF6FC752C402B
:1014D0000D882C434FF6FF552A400D894FF6FF76B5
:1014E00006EA05252A434D8806EA05252A43154DB7
:1014F000A84202D0144DA8421DD14FF2FF752A40D8
:101500004D894FF6FF7606EA05252A434FF6FF354B
:101510002A408D8806EA05252A434EF6FF752B40A2
:101520004DF6FF752B408D8906EA05152B43CD89B5
:1015300006EA05152B4383808483CD888587028442
:1015400070BD0000002C01400034014000220288E0
:101550001D4B98420ED01D4B98420BD0B0F1804FDE
:1015600008D01B4B984205D01A4B984202D01A4B18
:10157000984204D14FF68F731A404B881A43174B89
:10158000984207D0164B984204D04FF6FF431A40BA
:10159000CB881A4302808B8883850B8803850A4B8E
:1015A00098420BD0094B984208D00E4B984205D078
:1015B0000D4B984202D00D4B984201D10B7A038615
:1015C0000123838270470000002C01400034014059
:1015D0000004004000080040000C004000100040E3
:1015E0000014004000400140004401400048014018
:1015F00021B1828942F40052828104E082894DF651
:10160000FF731A408281704702460020B1F5007FC7
:1016100000D100BF13880B400BB1012000E0002077
:10162000704700002DE9F04786B005460E460024BD
:10163000A24600BFA1460027B08900B100BF2F46D7
:101640002C8A4CF6FF700440F08804432C82AC894D
:101650004EF6F3100440B08831890843718908437D
:101660000443AC81AC8A4FF6FF400440B089044388
:10167000AC8201A8FFF7AAFB1F48874202D1DDF820
:1016800010A001E0DDF80CA0A88900F4004040B1F2
:101690000AEBCA0000EB0A1031684900B0FBF1F810
:1016A00007E00AEBCA0000EB0A1031688900B0FBC2
:1016B000F1F86420B8FBF0F004012009642101FB7B
:1016C0001089A88900F4004040B1322000EBC90025
:1016D000B0FBF1F000F00700044308E0322000EB1B
:1016E00009106421B0FBF1F000F00F0004432C81DD
:1016F00006B0BDE8F087000000380140C1F30802E1
:101700008280704700BFFEE70024FFF731FBFFF740
:10171000F6FCFFF7CDFAFEF729FEFFF7A2F8B4209A
:10172000FFF752FC98E0012C04D14C480078FEF7FA
:10173000B7FF05E0FFF70EFBFFF780F8FFF7D0FBE0
:1017400047480078012806D1FFF754F94549087049
:101750000020434908704348007800287CD0414865
:101760000078102802D1FEF719FE75E03D48007898
:101770000E2802D1FEF71EFE6EE03A4800780528DA
:101780000CD1C820FFF71AFCFFF746F800BF354818
:1017900000780528FBD1FFF751F85DE0314800786B
:1017A00007280AD1C820FFF709FCFFF727F8142003
:1017B000FEF70EFEFFF742F84EE02A4800780D28AB
:1017C0000CD1C820FFF700FCFFF7B2FA00BF254894
:1017D00000780D28FBD1FFF7BDFA3DE021480078E5
:1017E0000F280CD1C820FFF7EFFBFFF78FFA00BFDF
:1017F0001C4800780F28FBD1FFF7ACFA2CE0194801
:10180000007806280CD19620FFF7E4FBFFF758FB81
:1018100000BF144800780628FBD1FFF761FB1BE0EE
:101820001048007808280CD18220FFF7D3FBFFF77F
:1018300037FB00BF0B4800780828FBD1FFF750FBAF
:101840000AE0084800780B2801D1012404E005488B
:101850000078092800D1002465E70000000000207E
:101860000400002005000020881800080000002067
:101870007000000028010008F8180008700000201F
:101880007006000044010008000001000000000094
:101890000000000000000000000102030401020338
:1018A0000406070809020406080000000000000002
:1018B000FF09000000FF09000100FF09000200FF0E
:1018C00009000300FF0B000100FF0B0000000000F7
:1018D00000000000014201000200030004000500B6
:1018E00006000700080009000A000B000C000D00AC
:0818F0000E000F0010000000C3
:04000005080000ED02
:00000001FF
