:020000040800F2
:10000000F806002089010008050900083B060008E1
:100010003F060008C5030008111A00080000000090
:100020000000000000000000000000004511000872
:100030000104000800000000490D0008A1010008AB
:10004000A3010008A3010008A3010008A301000800
:10005000A3010008A3010008A3010008A3010008F0
:10006000A3010008A3010008A3010008A3010008E0
:10007000A3010008A3010008A3010008A3010008D0
:10008000A3010008A3010008A3010008A3010008C0
:10009000A3010008A3010008A3010008A3010008B0
:1000A000A3010008A3010008A3010008A3010008A0
:1000B00035140008A3010008D9150008A3010008A1
:1000C000A3010008A3010008A3010008A301000880
:1000D000A3010008A3010008A3010008A301000870
:1000E000A3010008A3010008A301000800F002F822
:1000F00000F03AF80AA090E8000C82448344AAF188
:100100000107DA4501D100F02FF8AFF2090EBAE885
:100110000F0013F0010F18BFFB1A43F0010318473B
:10012000441A0000641A0000103A24BF78C878C14D
:10013000FAD8520724BF30C830C144BF04680C60ED
:10014000704700000023002400250026103A28BF35
:1001500078C1FBD8520728BF30C148BF0B60704739
:100160001FB51FBD10B510BD00F031F81146FFF7E7
:10017000F7FF01F04FFC00F04FF803B4FFF7F2FF78
:1001800003BC00F057F800000948804709480047C1
:10019000FEE7FEE7FEE7FEE7FEE7FEE7FEE7FEE737
:1001A000FEE7FEE704480549054A064B7047000094
:1001B000D5130008ED000008F8000020F806002024
:1001C000F8020020F802002070477047704775461B
:1001D00000F02CF8AE4605006946534620F00700B3
:1001E000854618B020B5FFF7DDFFBDE820404FF091
:1001F00000064FF000074FF000084FF0000B21F011
:100200000701AC46ACE8C009ACE8C009ACE8C009DD
:10021000ACE8C0098D46704710B50446AFF30080C6
:100220002046BDE81040FFF7A8BF00000048704717
:100230009400002001491820ABBEFEE72600020012
:100240007047000010B5A02000F0DEFF00F030FB8A
:1002500000F0C8F800F0B6FD00BF0748007802289B
:1002600003DA064800780128F7D000F0B9FD5A20DB
:1002700000F0CAFF10BD00000300002000000020B5
:1002800010B5044600F030FB00F08EFD00BF601E8C
:1002900013490978884203DD124800780128F6D016
:1002A00000F09EFD00F090F800F08CFD00BF0C48BF
:1002B0000078A04203DA0B4800780128F7D000F05C
:1002C0008FFD3C2000F0A0FF00F000FB00214FF468
:1002D000966000F09DF85A2000F096FF10BD0000D7
:1002E000030000200000002070B505460C46502099
:1002F00000F090FF822000F093FF00F0F5FA00F08C
:1003000015FE00214FF47A7000F082F800F04CFDE9
:1003100000BF17480078A84203DA16480078012881
:10032000F7D000F05DFD00F05DF8502000F072FFA6
:1003300000F048FD00214FF47A7000F069F8C82001
:1003400000F068FF00BF0A480078A04203DA0948BD
:1003500000780128F7D000F043FD962000F054FF0C
:10036000B42000F05DFF00F0A3FA00F03FFE70BD86
:10037000030000200000002010B504460A2000F011
:1003800043FF00214FF47A7000F042F8322000F071
:100390003BFF10BD10B500F055F900F003FF00F071
:1003A000F3FE00F0FDFB00F073FC00214FF47A70C7
:1003B00000F02EF800214FF47A7000F029F800F0D8
:1003C000A9FF10BD00BFFEE710B50521044800F0ED
:1003D000BBFE00214FF47A7000F01AF810BD000047
:1003E0002C00002010B50521044800F0ADFE0021CE
:1003F0004FF47A7000F00CF810BD000031000020BE
:10040000704710B501F0C8F800F0A0FF10BD000063
:10041000044A42F8210000BF024A52F82120002A73
:10042000FAD170477400002001460D4A12884A43F1
:100430004FF0E0235A6100229A6101221A6100BF45
:100440004FF0E022106900F001021AB100F480328E
:10045000002AF5D000224FF0E0231A619A6170471C
:100460002600002010B500F03FFA00F0B9FC00F0C3
:1004700039FE00F05BFE10BD2DE9F041024600257B
:100480000026002000230024002791F803C00CF070
:100490000F0591F803C00CF0100CBCF1000F03D055
:1004A00091F802C04CEA050591F800C0BCF1000FBC
:1004B00031D0146800202BE04FF0010C0CFA00F34F
:1004C000B1F800C00CEA03069E4220D183004FF031
:1004D0000F0C0CFA03F7BC4305FA03FC4CEA0404C6
:1004E00091F803C0BCF1280F06D14FF0010C0CFAB3
:1004F00000FCC2F814C00AE091F803C0BCF1480F38
:1005000005D14FF0010C0CFA00FCC2F810C0401CE1
:100510000828D1D31460B1F800C0BCF1FF0F34DD5E
:10052000546800202EE000F1080C4FF0010808FA92
:100530000CF3B1F800C00CEA03069E4221D18300FF
:100540004FF00F0C0CFA03F7BC4305FA03FC4CEA1E
:10055000040491F803C0BCF1280F05D100F1080C88
:1005600008FA0CF8C2F8148091F803C0BCF1480FE7
:1005700007D100F1080C4FF0010808FA0CF8C2F896
:100580001080401C0828CED35460BDE8F0810000E4
:10059000F0B50A46002300240021002500F00046A3
:1005A000B6F1004F02D11D4EF16901E01B4E71689A
:1005B000C0F3034583B200F44016B6F5401F08D1DE
:1005C00021F07061154E766826F07066134F7E60DC
:1005D00012E000F48016B6F5801F06D1032606FA55
:1005E00005F4A14341F0706106E0460D360103FABF
:1005F00006F6B14341F0706122B1460D360103FAAF
:1006000006F6314300F00046B6F1004F02D1034E2A
:10061000F16101E0014E7160F0BD00000000014099
:100620000246002093680B400BB1012000E000203F
:100630007047416170470161704700BFFEE700BF2E
:10064000FEE7000000B589B04FF4E070ADF804009B
:1006500018208DF8070003208DF8060001A927480F
:10066000FFF70AFF01212648FFF792FF40F6C3700B
:10067000ADF8040010208DF8070003208DF8060067
:1006800001A92048FFF7F8FE0020ADF81E00ADF8E4
:100690001A00C720ADF81C004720ADF8180006A9C5
:1006A000194801F0D9F84FF48070ADF814006020BB
:1006B000ADF808000020ADF810000120ADF80A00E8
:1006C0000020ADF80C00ADF80E0002A90E4800F0B5
:1006D000D5FF0020ADF80E0002A90B4801F01AF872
:1006E0000020ADF80E0002A9074801F065F80121CD
:1006F000054800F094FF09B000BD00000010014063
:10070000000C1A00000C01400004004010B5044623
:1007100064480078A04202D06248047000E010BD36
:100720001A2C6ED2DFE804F0BA0D101115192A2E1A
:10073000333438393D4E4F666B6C6E7273778889EF
:100740008AA1FFF77FFDAAE0A9E00320FFF714FECE
:10075000A5E00420FFF794FDA1E0962000F054FDF1
:1007600000214FF49660FFF753FE00214FF496608E
:10077000FFF74EFE822000F047FD90E0372000F0AA
:1007800043FD8CE006210520FFF7AEFD87E086E003
:100790000720FFF7F1FD82E081E00820FFF770FD00
:1007A0007DE08C2000F030FD00214FF49660FFF7D3
:1007B0002FFE00214FF49660FFF72AFE6E2000F016
:1007C00023FD6CE06BE0372000F01EFDC82000F038
:1007D00021FD00F0F7FA00BF33480078092803DA5A
:1007E000324800780128F7D000F0FAFA322000F001
:1007F0000BFD54E00B210A20FFF776FD4FE04EE0A1
:100800004DE04BE00D20FFF7B7FD48E047E00E203C
:10081000FFF736FD43E08C2000F0F6FC00214FF49A
:100820009660FFF7F5FD00214FF49660FFF7F0FDAD
:100830006E2000F0E9FC32E031E030E00A2000F008
:10084000E3FCC82000F0E6FC00F0BCFA00BF16484C
:100850000078102803DA154800780128F7D000F056
:10086000BFFA372000F0D0FC19E000F03DF800F0AE
:100870005DFB00214FF47A70FFF7CAFD00F094FA97
:1008800000BF09480078112803DA084800780128D9
:10089000F7D000F0A5FAFFF7A5FD00E000BF00BF0C
:1008A00000BF3CE70E0000200300002000000020F5
:1008B00010B54FF480710448FFF7BBFE4FF4007190
:1008C0000148FFF7B8FE10BD000C014010B54FF411
:1008D00080710448FFF7AFFE4FF400710148FFF745
:1008E000A8FE10BD000C014010B54FF48071044803
:1008F000FFF79FFE4FF400710148FFF79AFE10BD0D
:10090000000C0140704708B54FF4C06000F062F879
:100910001C208DF8000001208DF803008DF80100E7
:1009200002208DF80200684600F01CF826208DF8A1
:10093000000001208DF801008DF80200684600F0EB
:1009400011F81E208DF8000001208DF80300002012
:100950008DF8010001208DF80200684600F002F8D1
:1009600008BD000070B5002100230F22C47804B335
:10097000154C246804F4E064C4F5E064210AC1F174
:100980000403CA40447804FA03F1847814402143F4
:1009900009010E4C0678A155047804F01F050124C6
:1009A000AC4005786D11AD0005F1E025C5F80041BA
:1009B00009E0047804F01F050124AC40044D0678DA
:1009C000761145F8264070BD0CED00E000E400E033
:1009D00080E100E002490143024A116070470000D3
:1009E0000000FA050CED00E0002004E00021034ABD
:1009F0001154411CC8B20928F8DB70478800002058
:100A000038B504460120009000201E49487001209E
:100A100000902EE0BDF80000204018B101201A49D6
:100A2000086002E0002018490860012016490831DA
:100A300008600620FFF7F8FC00201449C1F8BC014B
:100A40000620FFF7F1FC01201049C1F8BC0108465F
:100A5000D0F8300130B10B484078BDF800100843A1
:100A600008494870BDF800004FF6FF7101EA4000E8
:100A70000090BDF80000FF28CCDD1020FFF7D4FC6B
:100A800038BD000088000020B4812142008021424E
:100A900070B5FFF7A9FF00F0A1F81048C0780F4922
:100AA000097940EA01200E490880002410E00D4831
:100AB00010F81400401E012101FA00F008490988CD
:100AC000084018B9601CC5B2284670BD601CC4B28D
:100AD000102CECDB00252846F7E7000088000020FA
:100AE0004A0000205200002010B500201349086081
:100AF0001020FFF799FC0120FFF782FF4320FFF74A
:100B00007FFF0020FFF77CFF0120FFF779FF002027
:100B1000FFF776FF0020FFF773FF0020FFF770FF5D
:100B20000020FFF76DFF0020FFF76AFF0120044956
:100B3000C1F8B8011020FFF777FC10BDB881214241
:100B40000080214210B50020134908601020FFF7F3
:100B50006BFC0120FFF754FF4320FFF751FF0020FB
:100B6000FFF74EFF0020FFF74BFF5A20FFF748FF2B
:100B70005A20FFF745FF5A20FFF742FF5A20FFF7A0
:100B80003FFF5A20FFF73CFF01200449C1F8B8019C
:100B90001020FFF749FC10BDB8812142008021429E
:100BA00008B54FF48050ADF8000028208DF8030000
:100BB00003208DF8020069460748FFF75DFC4FF4FB
:100BC0006040ADF8000010208DF80300694602482F
:100BD000FFF752FC08BD0000000C01401CB50020CE
:100BE00001900120009000202549086025490878DF
:100BF000FFF706FF23494878FFF702FF0220019024
:100C000036E00120009027E001201D49091D086001
:100C10000620FFF709FC00201B49C1F8BC01062093
:100C2000FFF702FC01201849C1F8BC010846D0F8C2
:100C3000300150B115489DF80410405CBDF800101B
:100C4000084312499DF804208854BDF800004FF66F
:100C5000FF7101EA40000090BDF80000FF28D3DDDD
:100C60001020FFF7E1FB9DF80400401CC0B201908A
:100C70009DF804000928C4DB0120014908601CBD5F
:100C8000B8812142500000200080214288000020CD
:100C900010B500F00BF800F009F800F007F8FFF7C6
:100CA00023FF00F025F8FFF74DFF10BD10B5002021
:100CB0000D4908601020FFF7B7FB0120FFF7A0FEE9
:100CC0004220FFF79DFE0020FFF79AFE0020FFF76D
:100CD00097FE0020FFF794FE01200449C1F8B801F7
:100CE0001020FFF7A1FB10BDB881214200802142F6
:100CF00010B50020124908600120FFF781FE442052
:100D0000FFF77EFE0020FFF77BFE0120FFF778FE55
:100D1000EE20FFF775FE0020FFF772FE0020FFF7C0
:100D20006FFE0020FFF76CFE0020FFF769FE012038
:100D30000449C1F8B8011020FFF776FB10BD000090
:100D4000B8812142008021427047000000B585B083
:100D50004FF4C060ADF8100018208DF81300032088
:100D60008DF8120004A90E48FFF786FB4FF4E1301E
:100D700000900020ADF80C000C20ADF80A00002017
:100D8000ADF80800ADF80600ADF804006946054866
:100D900000F0CEFD0121034800F0B0FD05B000BD1C
:100DA000000801400038014010B54FF4806104484C
:100DB000FFF73FFC4FF400610148FFF73CFC10BD1A
:100DC000000C014010B54FF480610448FFF733FC7C
:100DD0004FF400610148FFF72CFC10BD000C0140EE
:100DE00010B54FF480610448FFF723FC4FF4006115
:100DF0000148FFF71EFC10BD000C014010B5012199
:100E0000044800F009F8012144F23D0000F014F814
:100E100010BD00000700020029B1064AD269024352
:100E2000044BDA6104E0034AD2698243014BDA6180
:100E3000704700000010024029B1064A926902433F
:100E4000044B9A6104E0034A92698243014B9A6120
:100E5000704700000010024030B50021002200243D
:100E600000232D4D6D6805F00C0121B1042905D03A
:100E7000082923D105E0294D056022E0274D0560B2
:100E80001FE0254D6D6805F47012234D6D6805F463
:100E90008034022505EB92421CB9214D5543056073
:100EA0000BE01D4D6D6805F400351DB11C4D55431B
:100EB000056002E0194D5543056002E0174D0560DD
:100EC00000BF00BF144D6D6805F0F0010909154D14
:100ED0006B5C0568DD4045600F4D6D6805F4E061B1
:100EE000090A104D6B5C4568DD4085600A4D6D68F0
:100EF00005F46051C90A0B4D6B5C4568DD40C56067
:100F0000054D6D6805F44041890B074D6B5CC56864
:100F1000B5FBF3F5056130BD0010024000127A0008
:100F200000093D000F0000201F0000202DE9F047C0
:100F30000026B1460027B24600F0BCF800F0DEF80B
:100F40000124012546E02648007808B9BDE8F0876D
:100F5000C4B14FF000080FE004212248FFF760FB06
:100F600010B9701CC6B203E009F1010000F0FF09DE
:100F700008F1010000F0FF08B8F11E0FECDB142EA1
:100F800000DD0024C5B14FF000080FE01021154826
:100F9000FFF746FB10B9781CC7B203E00AF1010065
:100FA00000F0FF0A08F1010000F0FF08B8F11E0F81
:100FB000ECDB142F00DD00252DB900F093F80A2199
:100FC000094800F021FD2CB900F0B0F80B210648CB
:100FD00000F01AFD002CB6D1002DB4D100BFB5E74A
:100FE0000000002000100140003801402DE9F047CA
:100FF0000124012500264FF0000900274FF0000AC8
:1010000000F064F800F086F848E02748007818B946
:10101000FFF728FABDE8F087C4B14FF000080FE0F1
:1010200008212248FFF7FCFA10B9701CC6B203E091
:1010300009F1010000F0FF0908F1010000F0FF08CC
:10104000B8F11E0FECDB142E00DD0024C5B14FF00B
:1010500000080FE020211548FFF7E2FA10B9781CCC
:10106000C7B203E00AF1010000F0FF0A08F1010035
:1010700000F0FF08B8F11E0FECDB142F00DD002597
:101080002DB900F02FF81A21094800F0BDFC2CB949
:1010900000F04CF81B21064800F0B6FC002CB4D13F
:1010A000002DB2D100BFB5E70000002000100140C4
:1010B0000038014010B501210348FFF7BAFA0221B8
:1010C0000148FFF7B8FA10BD000C014010B501212E
:1010D0000348FFF7B0FA02210148FFF7AAFA10BD52
:1010E000000C014010B501210348FFF7A2FA0221CC
:1010F0000148FFF79EFA10BD000C014010B54021D9
:101100000348FFF796FA80210148FFF794FA10BDD3
:10111000000C014010B540210348FFF78CFA8021F4
:101120000148FFF786FA10BD000C014010B54021C0
:101130000348FFF77EFA80210148FFF77AFA10BDD5
:10114000000C0140704700002DE9F04104460D46B7
:10115000002613E014F8011B0A4800F055FC002794
:1011600001E0781C87B2B7F57A6F05DA40210548AF
:1011700000F0D0FB0028F4D0701CC6B2AE42E9DB10
:10118000BDE8F0810044004008B53F20ADF8000004
:1011900004208DF8030069460148FFF76DF908BD8A
:1011A0000010014000B585B00C20ADF810001820EB
:1011B0008DF8130003208DF8120004A91048FFF7E2
:1011C0005BF94FF4165000900020ADF80C000C2095
:1011D000ADF80A000020ADF80800ADF80600ADF843
:1011E00004006946074800F0A3FB0121054800F010
:1011F00085FB4021034800F08DFB05B000BD0000D9
:101200000008014000440040014908807047000088
:101210003404004001490880704700003804004051
:1012200001490880704700003C04004010B500F000
:1012300001F810BD0CB50020019000903348006803
:1012400040F480303149086000BF3048006800F445
:10125000003000900198401C0190009818B9019846
:10126000B0F5A06FF1D12948006800F4003010B14A
:101270000120009001E0002000900098012843D157
:101280002348006840F010002149086008460068C3
:1012900020F0030008600846006840F00200086083
:1012A0001A4840681949486008464068486008463E
:1012B000406840F4806048600846406820F47C1034
:1012C00048600846406840F4E810486008460068F6
:1012D00040F08070086000BF0C48006800F00070AB
:1012E0000028F9D00948406820F003000749486009
:1012F0000846406840F00200486000BF034840686C
:1013000000F00C000828F9D10CBD000000100240CC
:10131000002002400EB50020ADF80600ADF8020036
:101320006320ADF804002320ADF8000069464FF0BB
:10133000804000F091FA01221146900700F095F9E3
:101340000121880700F06BF90EBD000030B548217F
:10135000B1F1807F01D301201DE021F07F40401ECC
:101360004FF0E022506150170F22002807DA1307D0
:101370001D0E144B00F00F04241F1D5503E013072E
:101380001C0E114B1C5400BF00204FF0E022906156
:1013900007201061002008B100BFFEE700204FF0D9
:1013A000E02108610920094908800846008800EB0F
:1013B0004001C1EBC0104FF6FF7101EAC0000449C3
:1013C000088030BD18ED00E000E400E026000020B9
:1013D0002400002010B51348006840F001001149B6
:1013E000086008464068104908400E4948600846B1
:1013F00000680E4908400B4908600846006820F460
:10140000802008600846406820F4FE0048604FF4E1
:101410001F008860FFF70AFF4FF000600449086072
:1014200010BD0000001002400000FFF8FFFFF6FEB4
:1014300008ED00E010B50121880700F005F900284B
:1014400068D00121880700F0E7F846480088B0F529
:10145000FA7F1BD1002043490880012042490870CF
:10146000FFF716FB41490870084600780B2803D1A6
:1014700001203F4908700EE03C48007809280AD155
:1014800000203B490870FEF7EDFF04E03548008876
:10149000401C34490880374800781E2808D10020B5
:1014A000354908703349087001203449087025E037
:1014B000314800781E2810D13048007801280CD11E
:1014C00000202E4908702C4908702A4908702C48C1
:1014D0000078401C2A49087010E001212948FFF7D4
:1014E0009FF8012805D123480078401C2149087045
:1014F00004E021480078401C1F4908702248007809
:101500001E2808D10020214908701F4908700120B9
:101510001F49087025E01D4800781E2810D11C487E
:10152000007801280CD1002019490870174908706B
:101530001549087017480078401C1649087010E0DB
:1015400002211048FFF76CF8012805D10E480078F9
:10155000401C0D49087004E00C480078401C0B4901
:10156000087010BD0C0000200600002007000020BD
:1015700000000020090000200800002004000020D6
:1015800002000020001001400B0000200A00002093
:1015900005000020030000200EB50020ADF8020079
:1015A0004720ADF8040040F2E730ADF8000069468E
:1015B000084800F051F901221146064800F055F89C
:1015C0000121044800F037F80121024800F027F813
:1015D0000EBD00000008004010B501210C4800F0CD
:1015E00033F8A0B101210A4800F016F800200CE001
:1015F000084951F8201031B1064951F82010491E10
:10160000044A42F82010411CC8B20528F0DB10BD86
:101610000008004074000020CA430282704721B1D4
:10162000028842F00102028004E002884FF6FE7355
:101630001A400280704702460020138A0B400BB10B
:10164000012000E00020704730B502460020002352
:101650000024158A05EA0103958905EA010413B1FE
:101660000CB1012000E0002030BD1AB183890B438A
:10167000838102E083898B438381704770B50024A6
:1016800000220023058C4FF6FE7635400584028C3F
:101690008388048B4FF68F752C40B51E2C400D8827
:1016A0002C43751E2A400D892A434D882A43144D28
:1016B000A8420BD0134DA84208D0134DA84205D024
:1016C000124DA84202D0124DA84213D14FF6F77521
:1016D0002A404D892A434FF6FB752A408D882A43BC
:1016E0004FF6FF652B404FF6FF552B408D892B435E
:1016F000CD892B4383800483CD888586028470BD89
:10170000002C0140003401400040014000440140F1
:101710000048014070B5002400220023058C4FF6DC
:10172000EF7635400584028C8388048B48F6FF757C
:101730002C404FF6FF452C400D884FF6FF7606EA09
:1017400005252C434FF6DF752A400D8906EA05155D
:101750002A434D8806EA05152A43154DA84202D0B2
:10176000144DA8421DD14FF67F752A404D894FF682
:10177000FF7606EA05152A434FF6BF752A408D8885
:1017800006EA05152A434FF6FF352B404FF2FF7549
:101790002B408D8906EA85052B43CD8906EA850510
:1017A0002B4383800483CD880587028470BD0000AD
:1017B000002C01400034014070B5002400220023B9
:1017C000058C4FF6FF6635400584028C8388848B38
:1017D0004FF68F752C404FF6FC752C400D882C432E
:1017E0004FF6FF552A400D894FF6FF7606EA05258C
:1017F0002A434D8806EA05252A43154DA84202D002
:10180000144DA8421DD14FF2FF752A404D894FF665
:10181000FF7606EA05252A434FF6FF352A408D88D4
:1018200006EA05252A434EF6FF752B404DF6FF7557
:101830002B408D8906EA05152B43CD8906EA05154F
:101840002B4383808483CD888587028470BD00000C
:10185000002C014000340140002202881D4B9842B8
:101860000ED01D4B98420BD0B0F1804F08D01B4BCF
:10187000984205D01A4B984202D01A4B984204D194
:101880004FF68F731A404B881A43174B984207D074
:10189000164B984204D04FF6FF431A40CB881A43A8
:1018A00002808B8883850B8803850A4B98420BD076
:1018B000094B984208D00E4B984205D00D4B9842E8
:1018C00002D00D4B984201D10B7A0386012383820B
:1018D00070470000002C014000340140000400402B
:1018E00000080040000C00400010004000140040C0
:1018F00000400140004401400048014021B182897C
:1019000042F40052828104E082894DF6FF731A404E
:101910008281704702460020B1F5007F00D100BFF0
:1019200013880B400BB1012000E00020704700003D
:101930002DE9F04786B005460E460024A24600BFBA
:10194000A1460027B08900B100BF2F462C8A4CF673
:10195000FF700440F08804432C82AC894EF6F310EB
:101960000440B08831890843718908430443AC813D
:10197000AC8A4FF6FF400440B0890443AC8201A812
:10198000FFF76AFA1F48874202D1DDF810A001E094
:10199000DDF80CA0A88900F4004040B10AEBCA00B1
:1019A00000EB0A1031684900B0FBF1F807E00AEBE0
:1019B000CA0000EB0A1031688900B0FBF1F864201E
:1019C000B8FBF0F004012009642101FB1089A8890B
:1019D00000F4004040B1322000EBC900B0FBF1F050
:1019E00000F00700044308E0322000EB09106421F6
:1019F000B0FBF1F000F00F0004432C8106B0BDE80D
:101A0000F087000000380140C1F30802828070476F
:101A100000BFFEE7FFF7F2F9FEF7F3FCFEF773FFF6
:101A2000FFF794F9FEF7B6FCC820FFF7F3FBA02000
:101A3000FFF7F6FB8DE047480078012803D14648C0
:101A40000078FEF763FE45480078012802D10020A7
:101A5000424908704248007800287AD0404800780F
:101A6000102802D1FEF7B0FC73E03D4800780E2844
:101A700002D1FEF7B7FC6CE03948007805280CD19C
:101A80006420FFF7C1FBFEF721FF00BF3448007858
:101A90000528FBD0FEF728FF5BE0314800780728D7
:101AA0000CD16420FFF7B0FBFEF702FF00BF2C480B
:101AB00000780728FBD0FEF717FF4AE02848007897
:101AC0000D280CD1C820FFF7A5FBFFF77BF900BF5D
:101AD000234800780D28FBD0FFF782F939E0204831
:101AE00000780F280CD1C820FFF794FBFFF75CF9B2
:101AF00000BF1B4800780F28FBD0FFF771F928E0E2
:101B000017480078062810D19620FFF789FBFFF7C9
:101B1000DDFAFFF7FFFA00BF114800780628FBD076
:101B2000FFF7E0FAFFF702FB13E00D480078082802
:101B30000FD19620FFF774FBFFF7BCFAFFF7DEFA30
:101B400000BF074800780828FBD0FFF7CBFAFFF763
:101B5000EDFA70E7000000200200002006000020DF
:101B600007000020841B0008000000207400000013
:101B700028010008F81B00087400002084060000FB
:101B80004401000800000000010000000000000007
:101B9000000000000000000102030401020304062B
:101BA0000708090204060800000000000000000009
:101BB000FF09000000FF09000100FF09000200FF0B
:101BC00009000300FF0B000100FF0B0000000000F4
:101BD00000000000014201000200030004000500B3
:101BE00006000700080009000A000B000C000D00A9
:081BF0000E000F0010000000C0
:04000005080000ED02
:00000001FF
