:020000040800F2
:10000000E806002089010008AD080008FF05000887
:1000100003060008C503000865170008000000007B
:100020000000000000000000000000003D0F00087C
:100030000104000800000000110D000885110008EF
:10004000A3010008A3010008A3010008A301000800
:10005000A3010008A3010008A3010008A3010008F0
:10006000A3010008A3010008A3010008A3010008E0
:10007000A3010008A3010008A3010008A3010008D0
:10008000A3010008A3010008A3010008A3010008C0
:10009000A3010008A3010008A3010008A3010008B0
:1000A000A3010008A3010008A3010008A3010008A0
:1000B0000D120008A301000861130008A301000845
:1000C000A3010008A3010008A3010008A301000880
:1000D000A3010008A3010008A3010008A301000870
:1000E000A3010008A3010008A301000800F002F822
:1000F00000F03AF80AA090E8000C82448344AAF188
:100100000107DA4501D100F02FF8AFF2090EBAE885
:100110000F0013F0010F18BFFB1A43F0010318473B
:1001200080170000A0170000103A24BF78C878C1DB
:10013000FAD8520724BF30C830C144BF04680C60ED
:10014000704700000023002400250026103A28BF35
:1001500078C1FBD8520728BF30C148BF0B60704739
:100160001FB51FBD10B510BD00F031F81146FFF7E7
:10017000F7FF01F0F9FA00F04FF803B4FFF7F2FFD0
:1001800003BC00F057F800000948804709480047C1
:10019000FEE7FEE7FEE7FEE7FEE7FEE7FEE7FEE737
:1001A000FEE7FEE704480549054A064B7047000094
:1001B000AD110008ED000008E8000020E80600206E
:1001C000E8020020E802002070477047704775463B
:1001D00000F02CF8AE4605006946534620F00700B3
:1001E000854618B020B5FFF7DDFFBDE820404FF091
:1001F00000064FF000074FF000084FF0000B21F011
:100200000701AC46ACE8C009ACE8C009ACE8C009DD
:10021000ACE8C0098D46704710B50446AFF30080C6
:100220002046BDE81040FFF7A8BF00000048704717
:100230008800002001491820ABBEFEE7260002001E
:100240007047000010B5C82000F0DAFE00F004FB93
:1002500000F0C8F800F09AFD00BF034800780228BB
:10026000FBDB00F0A1FD10BD0100002010B504462D
:1002700000F00EFB00F07CFD00BF601E0B4909780A
:100280008842FADC00F090FD00F09EF800F07EFD60
:1002900000BF06480078A042FBDB00F085FD5A2035
:1002A00000F0AEFE00F0E6FA10BD000001000020F4
:1002B00070B504460D46502000F0A8FE822000F0E4
:1002C000ABFE00F0E5FA00F015FE00BF04212C485B
:1002D00000F088F90028F9D100F024FE00214FF445
:1002E0007A7000F08FF800F011FE00BF042124485E
:1002F00000F078F90028F9D100F014FE00214FF445
:100300007A7000F07FF800214FF47A7000F07AF8EC
:1003100000214FF47A7000F075F800F029FD00BF5D
:1003200018480078A042FBDB00F03EFD00F05AF8D0
:10033000502000F06BFE00F029FD00214FF47A7090
:1003400000F060F8C82000F061FE00BF0D480078A2
:10035000A842FBDB00F028FD962000F051FE96201D
:1003600000F05AFE00F078FA00F0D0FD00BF08213E
:10037000034800F037F90028F9D100F0D3FD70BD33
:10038000001001400100002010B504463C2000F0A0
:1003900037FE10BD10B500F037F900F0FFFD00F09A
:1003A000EFFD00F0DBFB00F055FC00214FF47A700C
:1003B00000F028F800214FF47A7000F023F800F0E4
:1003C000A5FE10BD00BFFEE710B50521044800F0F2
:1003D000B7FD00214FF47A7000F014F810BD000052
:1003E0002100002010B50521044800F0A9FD0021DE
:1003F0004FF47A7000F006F810BD000026000020CF
:10040000704700004FF47A724243054B43F82120B5
:1004100000BF034A52F82120002AFAD17047000099
:1004200068000020044A42F8210000BF024A52F846
:100430002120002AFAD17047680000202DE9F04100
:10044000024600250026002000230024002791F802
:1004500003C00CF00F0591F803C00CF0100CBCF1B8
:10046000000F03D091F802C04CEA050591F800C0D6
:10047000BCF1000F31D0146800202BE04FF0010CCC
:100480000CFA00F3B1F800C00CEA03069E4220D13A
:1004900083004FF00F0C0CFA03F7BC4305FA03FC82
:1004A0004CEA040491F803C0BCF1280F06D14FF0C8
:1004B000010C0CFA00FCC2F814C00AE091F803C069
:1004C000BCF1480F05D14FF0010C0CFA00FCC2F84A
:1004D00010C0401C0828D1D31460B1F800C0BCF192
:1004E000FF0F34DD546800202EE000F1080C4FF0BF
:1004F000010808FA0CF3B1F800C00CEA03069E42AA
:1005000021D183004FF00F0C0CFA03F7BC4305FA1E
:1005100003FC4CEA040491F803C0BCF1280F05D198
:1005200000F1080C08FA0CF8C2F8148091F803C026
:10053000BCF1480F07D100F1080C4FF0010808FA90
:100540000CF8C2F81080401C0828CED35460BDE8D7
:10055000F0810000F0B50A460023002400210025A8
:1005600000F00046B6F1004F02D11D4EF16901E0E6
:100570001B4E7168C0F3034583B200F44016B6F514
:10058000401F08D121F07061154E766826F0706624
:10059000134F7E6012E000F48016B6F5801F06D17E
:1005A000032606FA05F4A14341F0706106E0460D0A
:1005B000360103FA06F6B14341F0706122B1460DEF
:1005C000360103FA06F6314300F00046B6F1004F5B
:1005D00002D1034EF16101E0014E7160F0BD0000F7
:1005E000000001400246002093680B400BB101203F
:1005F00000E000207047416170470161704700BF13
:10060000FEE700BFFEE7000000B589B04FF4E070E0
:10061000ADF8040018208DF8070003208DF80600BF
:1006200001A92A48FFF70AFF01212948FFF792FF95
:100630004FF47C60ADF8040010208DF80700032013
:100640008DF8060001A92348FFF7F8FE0020ADF859
:100650001E00ADF81A00C720ADF81C004720ADF809
:10066000180006A91C4800F0A1FF4FF48070ADF8F7
:1006700014006020ADF808000020ADF81000012043
:10068000ADF80A000020ADF80C00ADF80E0002A98C
:10069000114800F09DFE0020ADF80E0002A90E48A2
:1006A00000F0E2FE0020ADF80E0002A90A4800F0BA
:1006B0002DFF0121084800F064FE00F0E9F800F089
:1006C00073FB00F02FFC09B000BD000000100140DA
:1006D000000C1A00000C01400004004010B5044654
:1006E0005A480078A04202D05848047000E010BD7B
:1006F0001A2C7DD2DFE804F0A50D101115191D2666
:100700002B2F3034383C3D5055595A5B5F63676836
:10071000697DFFF797FD95E094E00320FFF734FE35
:1007200090E00420FFF7A2FD8CE0C82000F068FCF8
:1007300088E0002140F25230FFF764FE3C2000F0D8
:100740005FFC7FE006210520FFF7B2FD7AE0C820BC
:1007500000F056FC76E075E00720FFF715FE71E02B
:100760000820FFF783FD6DE0C82000F049FC69E038
:1007700068E00A2000F044FCC82000F047FC00F0CC
:1007800005FB00BF324800780928FBDB00F00CFBBA
:100790003C2000F035FC55E00B210A20FFF788FDD6
:1007A00050E0C82000F02CFC4CE04BE04AE00D206B
:1007B000FFF7EAFD46E00E20FFF758FD42E0C820B3
:1007C00000F01EFC3EE03DE03CE0002000F018FCA4
:1007D000C82000F01BFC00F0D9FA00BF1C480078CC
:1007E0001028FBDB00F0E0FA5A2000F009FC29E0B9
:1007F00027E000F04DF800F07DFB00BF0421154814
:10080000FFF7F0FE0028F9D100F08CFB00214FF437
:100810007A70FFF7F7FD00214FF47A70FFF7F2FDD1
:1008200000214FF47A70FFF7EDFD00F0A1FA00BF50
:10083000074800781128FBDB00F0B6FAFFF7D2FD7D
:1008400000E000BF00BF00BF51E700000C00002027
:10085000010000200010014010B54FF480710448E1
:10086000FFF7C9FE4FF400710148FFF7C6FE10BD47
:10087000000C014010B54FF480710448FFF7BDFE35
:100880004FF400710148FFF7B6FE10BD000C0140A7
:1008900010B54FF480710448FFF7ADFE4FF40071BE
:1008A0000148FFF7A8FE10BD000C0140704708B5D5
:1008B0004FF4C06000F052F81C208DF800000120B9
:1008C0008DF803008DF8010002208DF802006846C3
:1008D00000F00CF826208DF8000001208DF80100B2
:1008E0008DF80200684600F001F808BD70B50021DF
:1008F00000230F22C47804B3154C246804F4E06488
:10090000C4F5E064210AC1F10403CA40447804FA42
:1009100003F184781440214309010E4C0678A15557
:10092000047804F01F050124AC4005786D11AD007A
:1009300005F1E025C5F8004109E0047804F01F0541
:100940000124AC40044D0678761145F8264070BD70
:100950000CED00E000E400E080E100E0024901432A
:10096000024A1160704700000000FA050CED00E03B
:1009700010B5002807DA0A07140E054A00F00F0325
:100980001B1FD45403E00A07130E024A135410BD70
:1009900018ED00E000E400E0002004E00021034A3C
:1009A0001154411CC8B20928F8DB70477C000020B4
:1009B00038B504460120009000201F4948700120EE
:1009C000009030E0BDF80000204018B101201B4924
:1009D000086002E000201949086001201749083129
:1009E000086001210620FFF71DFD00201449C1F811
:1009F000BC0101210620FFF715FD01201049C1F8B7
:100A0000BC010846D0F8300130B10B484078BDF841
:100A10000010084308494870BDF800004FF6FF7108
:100A200001EA40000090BDF80000FF28CADD012166
:100A30001020FFF7F7FC38BD7C000020B481214274
:100A40000080214270B5FFF7A7FF00F0A5F810481D
:100A5000C0780F49097940EA01200E490880002436
:100A600010E00D4810F81400401E012101FA00F0BA
:100A700008490988084018B9601CC5B2284670BDED
:100A8000601CC4B2102CECDB00252846F7E7000000
:100A90007C000020400000204800002010B500200D
:100AA0001449086001211020FFF7BCFC0120FFF76A
:100AB0007FFF4320FFF77CFF0020FFF779FF012035
:100AC000FFF776FF0020FFF773FF0020FFF770FFAE
:100AD0000020FFF76DFF0020FFF76AFF0020FFF7FF
:100AE00067FF01200449C1F8B80101211020FFF778
:100AF00099FC10BDB88121420080214210B5002030
:100B00001449086001211020FFF78CFC0120FFF739
:100B10004FFF4320FFF74CFF0020FFF749FF002065
:100B2000FFF746FF5A20FFF743FF5A20FFF740FF29
:100B30005A20FFF73DFF5A20FFF73AFF5A20FFF7F0
:100B400037FF01200449C1F8B80101211020FFF747
:100B500069FC10BDB88121420080214208B54FF4E4
:100B60008050ADF8000028208DF8030003208DF898
:100B7000020069460748FFF761FC4FF46040ADF89A
:100B8000000010208DF8030069460248FFF756FC6C
:100B900008BD0000000C01401CB5002001900120A0
:100BA000009000202749086027490878FFF700FFD8
:100BB00025494878FFF7FCFE0220019039E001202A
:100BC000009029E001201F49091D0860012106202D
:100BD000FFF728FC00201D49C1F8BC0101210620B7
:100BE000FFF720FC01201949C1F8BC010846D0F8E4
:100BF000300150B116489DF80410405CBDF800105B
:100C0000084313499DF804208854BDF800004FF6AE
:100C1000FF7101EA40000090BDF80000FF28D1DD1F
:100C200001211020FFF7FEFB9DF80400401CC0B21C
:100C300001909DF804000928C1DB012001490860EA
:100C40001CBD0000B88121424600002000802142E6
:100C50007C00002010B500F00BF800F009F800F05F
:100C600007F8FFF71BFF00F027F8FFF747FF10BD5D
:100C700010B500200E49086001211020FFF7D2FBBB
:100C80000120FFF795FE4220FFF792FE0020FFF7BC
:100C90008FFE0020FFF78CFE0020FFF789FE012069
:100CA0000449C1F8B80101211020FFF7BBFB10BDBA
:100CB000B88121420080214210B50020124908600D
:100CC0000120FFF775FE4420FFF772FE0020FFF7BA
:100CD0006FFE0120FFF76CFEEE20FFF769FE00209B
:100CE000FFF766FE0020FFF763FE0020FFF760FEBF
:100CF0000020FFF75DFE01200449C1F8B801012181
:100D00001020FFF78FFB10BDB881214200802142E7
:100D10007047000000B585B04FF4C060ADF810001A
:100D200018208DF8130003208DF8120004A90E4836
:100D3000FFF784FB4FF4E13000900020ADF80C0089
:100D40000C20ADF80A000020ADF80800ADF8060050
:100D5000ADF804006946054800F094FC0121034801
:100D600000F076FC05B000BD0008014000380140ED
:100D700010B54FF480610448FFF73DFC4FF400616B
:100D80000148FFF73AFC10BD000C014010B54FF4CC
:100D900080610448FFF731FC4FF400610148FFF720
:100DA0002AFC10BD000C014010B54FF480610448CE
:100DB000FFF721FC4FF400610148FFF71CFC10BD58
:100DC000000C014010B50121044800F009F8012190
:100DD00044F23D0000F014F810BD000007000200CE
:100DE00029B1064AD2690243044BDA6104E0034A9E
:100DF000D2698243014BDA61704700000010024063
:100E000029B1064A92690243044B9A6104E0034AFD
:100E100092698243014B9A617047000000100240C2
:100E200030B500210022002400232D4D6D6805F00F
:100E30000C0121B1042905D0082923D105E0294D51
:100E4000056022E0274D05601FE0254D6D6805F423
:100E50007012234D6D6805F48034022505EB924233
:100E60001CB9214D554305600BE01D4D6D6805F41F
:100E700000351DB11C4D5543056002E0194D554329
:100E8000056002E0174D056000BF00BF144D6D689E
:100E900005F0F0010909154D6B5C0568DD40456002
:100EA0000F4D6D6805F4E061090A104D6B5C4568F3
:100EB000DD4085600A4D6D6805F46051C90A0B4D2F
:100EC0006B5C4568DD40C560054D6D6805F44041CB
:100ED000890B074D6B5CC568B5FBF3F5056130BD4B
:100EE0000010024000127A0000093D000D000020B1
:100EF0001D00002010B540210348FFF77CFB802136
:100F00000148FFF77AFB10BD000C014010B54021ED
:100F10000348FFF772FB80210148FFF76CFB10BD0F
:100F2000000C014010B540210348FFF764FB80210D
:100F30000148FFF760FB10BD000C01407047000046
:100F40002DE9F04104460D46002613E014F8011B7C
:100F50000A4800F003FC002701E0781C87B2B7F5CF
:100F60007A6F05DA4021054800F07EFB0028F4D0B6
:100F7000701CC6B2AE42E9DBBDE8F081004400401F
:100F800008B50F20ADF8000004208DF80300694675
:100F90000148FFF753FA08BD0010014000B585B0C5
:100FA0000C20ADF8100018208DF8130003208DF8E8
:100FB000120004A91048FFF741FA4FF416500090B0
:100FC0000020ADF80C000C20ADF80A000020ADF8B0
:100FD0000800ADF80600ADF804006946074800F0C7
:100FE00051FB0121054800F033FB4021034800F08C
:100FF0003BFB05B000BD000000080140004400407C
:10100000014908807047000034040040014908800D
:101010007047000038040040014908807047000014
:101020003C04004010B500F001F810BD0CB50020E4
:10103000019000903348006840F4803031490860E6
:1010400000BF3048006800F4003000900198401C58
:101050000190009818B90198B0F5A06FF1D1294816
:10106000006800F4003010B10120009001E0002081
:1010700000900098012843D12348006840F01000F8
:10108000214908600846006820F00300086008460F
:10109000006840F0020008601A484068194948603A
:1010A0000846406848600846406840F480604860F0
:1010B0000846406820F47C1048600846406840F4C8
:1010C000E81048600846006840F08070086000BF83
:1010D0000C48006800F000700028F9D0094840680A
:1010E00020F00300074948600846406840F00200CD
:1010F000486000BF0348406800F00C000828F9D1A0
:101100000CBD000000100240002002400EB500207F
:10111000ADF80600ADF802006320ADF8040023200E
:10112000ADF8000069464FF0804000F03FFA012220
:101130001146900700F042F90121880700F021F9DB
:101140000EBD10B54824B4F1807F01D3012011E019
:1011500024F07F40401E4FF0E02148610F214FF006
:10116000FF30FFF705FC00204FF0E02188610720E9
:101170000861002008B100BFFEE70321081FFFF748
:10118000F7FB10BD00200BE0074951F8201031B1EA
:10119000054951F82010491E034A42F82010401C0E
:1011A0000528F1DB704700006800002010B51348E7
:1011B000006840F001001149086008464068104985
:1011C00008400E494860084600680E4908400B492F
:1011D00008600846006820F48020086008464068DF
:1011E00020F4FE0048604FF41F008860FFF71AFFEC
:1011F0004FF000600449086010BD0000001002407C
:101200000000FFF8FFFFF6FE08ED00E010B5012139
:10121000880700F0C2F8002861D00121880700F09B
:10122000ADF843480088B0F5FA7F14D1002040495A
:10123000088001203F490870FFF704FC3E49087010
:101240000846007809280BD1FFF7AEFDFFF720FB19
:10125000FFF768FE04E036480088401C34490880E7
:10126000364800781E2808D10020354908703349D7
:10127000087001203349087025E0314800781E28A5
:1012800010D13048007801280CD100202D49087079
:101290002B490870294908702B480078401C2A49BE
:1012A000087010E001212948FFF79CF9012805D1B9
:1012B00022480078401C2149087004E0204800784A
:1012C000401C1F490870224800781E2808D10020C1
:1012D000204908701E49087001201F49087025E048
:1012E0001C4800781E2810D11B48007801280CD11A
:1012F00000201949087017490870154908701748E7
:101300000078401C1549087010E002210F48FFF7D3
:1013100069F9012805D10E480078401C0C49087075
:1013200004E00C480078401C0A49087010BD000019
:101330000A00002004000020050000200700002013
:1013400006000020020000200000002000100140E4
:1013500009000020080000200300002001000020F8
:1013600010B50121044800F018F818B10121024815
:1013700000F004F810BD000000080040CA430282DB
:10138000704721B1028842F00102028004E0028825
:101390004FF6FE731A400280704730B502460020B7
:1013A00000230024158A05EA0103958905EA010452
:1013B00013B10CB1012000E0002030BD1AB18389C7
:1013C0000B43838102E083898B4383817047000054
:1013D00070B5002400220023058C4FF6FE763540C0
:1013E0000584028C8388048B4FF68F752C40B51EC4
:1013F0002C400D882C43751E2A400D892A434D88A8
:101400002A43144DA8420BD0134DA84208D0134DC7
:10141000A84205D0124DA84202D0124DA84213D1C5
:101420004FF6F7752A404D892A434FF6FB752A403F
:101430008D882A434FF6FF652B404FF6FF552B4012
:101440008D892B43CD892B4383800483CD8885866A
:10145000028470BD002C0140003401400040014076
:10146000004401400048014070B5002400220023E0
:10147000058C4FF6EF7635400584028C8388048B0B
:1014800048F6FF752C404FF6FF452C400D884FF66F
:10149000FF7606EA05252C434FF6DF752A400D89B5
:1014A00006EA05152A434D8806EA05152A43154D17
:1014B000A84202D0144DA8421DD14FF67F752A4094
:1014C0004D894FF6FF7606EA05152A434FF6BF759C
:1014D0002A408D8806EA05152A434FF6FF352B4032
:1014E0004FF2FF752B408D8906EA85052B43CD8988
:1014F00006EA85052B4383800483CD880587028413
:1015000070BD0000002C01400034014070B5002483
:1015100000220023058C4FF6FF6635400584028CBF
:101520008388848B4FF68F752C404FF6FC752C40CA
:101530000D882C434FF6FF552A400D894FF6FF7654
:1015400006EA05252A434D8806EA05252A43154D56
:10155000A84202D0144DA8421DD14FF2FF752A4077
:101560004D894FF6FF7606EA05252A434FF6FF35EB
:101570002A408D8806EA05252A434EF6FF752B4042
:101580004DF6FF752B408D8906EA05152B43CD8955
:1015900006EA05152B4383808483CD8885870284E2
:1015A00070BD0000002C0140003401400022028880
:1015B0001D4B98420ED01D4B98420BD0B0F1804F7E
:1015C00008D01B4B984205D01A4B984202D01A4BB8
:1015D000984204D14FF68F731A404B881A43174B29
:1015E000984207D0164B984204D04FF6FF431A405A
:1015F000CB881A4302808B8883850B8803850A4B2E
:1016000098420BD0094B984208D00E4B984205D017
:101610000D4B984202D00D4B984201D10B7A0386B4
:101620000123838270470000002C014000340140F8
:101630000004004000080040000C00400010004082
:1016400000140040004001400044014000480140B7
:1016500021B1828942F40052828104E082894DF6F0
:10166000FF731A408281704702460020B1F5007F67
:1016700000D100BF13880B400BB1012000E0002017
:10168000704700002DE9F04786B005460E4600245D
:10169000A24600BFA1460027B08900B100BF2F4677
:1016A0002C8A4CF6FF700440F08804432C82AC89ED
:1016B0004EF6F3100440B08831890843718908431D
:1016C0000443AC81AC8A4FF6FF400440B089044328
:1016D000AC8201A8FFF7A4FB1F48874202D1DDF8C6
:1016E00010A001E0DDF80CA0A88900F4004040B192
:1016F0000AEBCA0000EB0A1031684900B0FBF1F8B0
:1017000007E00AEBCA0000EB0A1031688900B0FB61
:10171000F1F86420B8FBF0F004012009642101FB1A
:101720001089A88900F4004040B1322000EBC900C4
:10173000B0FBF1F000F00700044308E0322000EBBA
:1017400009106421B0FBF1F000F00F0004432C817C
:1017500006B0BDE8F087000000380140C1F3080280
:101760008280704700BFFEE70024FFF72BFBFFF7E6
:10177000E8FCFFF7CFFAFEF70DFEFFF798F8B4206C
:10178000FFF744FC87E0012C03D143480078FEF7C3
:10179000A5FF4248007800287DD0404800781028F6
:1017A00002D1FEF711FE76E03C4800780E2802D107
:1017B000FEF718FE6FE03948007805280CD1C820E4
:1017C000FFF71EFCFFF756F800BF344800780528E5
:1017D000FBD1FFF75DF85EE03048007807280BD1B9
:1017E000C820FFF70DFCFFF737F800211420FEF7A3
:1017F00009FEFFF74DF84EE0284800780D280CD17F
:10180000C820FFF703FCFFF7C1FA00BF23480078A8
:101810000D28FBD1FFF7C8FA3DE0204800780F28DB
:101820000CD1C820FFF7F2FBFFF7A2FA00BF1B485C
:1018300000780F28FBD1FFF7B7FA2CE017480078A3
:1018400006280CD19620FFF7E7FBFFF75FFB00BFF0
:10185000124800780628FBD1FFF764FB1BE00F4815
:10186000007808280CD18220FFF7D6FBFFF742FB57
:1018700000BF0A4800780828FBD1FFF753FB0AE0B5
:10188000064800780B2801D1012404E003480078C1
:10189000092800D1002476E7000000200500002080
:1018A000C01800080000002068000000280100089F
:1018B0002819000868000020800600004401000884
:1018C0000000010000000000000000000000000017
:1018D00000010203040102030406070809020406CA
:1018E00008FF09000000FF09000100FF09000200D5
:1018F000FF09000300FF0B000100FF0B00000000C8
:10190000000000000000014201000200030004008A
:10191000050006000700080009000A000B000C0083
:081920000D000E000F00100085
:04000005080000ED02
:00000001FF
