:020000040800F2
:10000000D806002089010008B10500088104000815
:10001000A904000867020008A112000800000000FF
:10002000000000000000000000000000BD0B000800
:100030009D02000800000000510A0008FD0D0008A4
:10004000A3010008A3010008A3010008A301000800
:10005000A3010008A3010008A3010008A3010008F0
:10006000A3010008A3010008A3010008A3010008E0
:10007000A3010008A3010008A3010008A3010008D0
:10008000A3010008A3010008A3010008A3010008C0
:10009000A3010008A3010008A3010008A3010008B0
:1000A000A3010008A3010008A3010008A3010008A0
:1000B000750E0008A3010008A3010008A3010008B1
:1000C000A3010008A3010008A3010008A301000880
:1000D000A3010008A3010008A3010008A301000870
:1000E000A3010008A3010008A301000800F002F822
:1000F00000F03AF80AA090E8000C82448344AAF188
:100100000107DA4501D100F02FF8AFF2090EBAE885
:100110000F0013F0010F18BFFB1A43F0010318473B
:1001200090130000B0130000103A24BF78C878C1C3
:10013000FAD8520724BF30C830C144BF04680C60ED
:10014000704700000023002400250026103A28BF35
:1001500078C1FBD8520728BF30C148BF0B60704739
:100160001FB51FBD10B510BD00F031F81146FFF7E7
:10017000F7FF01F097F800F04FF803B4FFF7F2FF34
:1001800003BC00F057F800000948804709480047C1
:10019000FEE7FEE7FEE7FEE7FEE7FEE7FEE7FEE737
:1001A000FEE7FEE704480549054A064B7047000094
:1001B000150E0008ED000008D8000020D806002029
:1001C000D8020020D802002070477047704775465B
:1001D00000F02CF8AE4605006946534620F00700B3
:1001E000854618B020B5FFF7DDFFBDE820404FF091
:1001F00000064FF000074FF000084FF0000B21F011
:100200000701AC46ACE8C009ACE8C009ACE8C009DD
:10021000ACE8C0098D46704710B50446AFF30080C6
:100220002046BDE81040FFF7A8BF00000048704717
:100230007400002001491820ABBEFEE72600020032
:10024000704710B500F032F900F0E8FC00F0D8FC7F
:1002500000F00AFB40F24C4000F022F800F09CFB5A
:1002600000F08EFD10BD00BFFEE7000010B50521B7
:10027000034800F0A5FC642000F012F810BD000057
:100280002000002010B50521034800F099FC6420EF
:1002900000F006F810BD00002500002070470000A7
:1002A0004FF47A714143044A116000BF0249096862
:1002B0000029FBD1704700001C00002003490860A2
:1002C00000BF024909680029FBD170471C000020CB
:1002D0002DE9F041024600250026002000230024DD
:1002E000002791F803C00CF00F0591F803C00CF043
:1002F000100CBCF1000F03D091F802C04CEA0505C8
:1003000091F800C0BCF1000F31D0146800202BE040
:100310004FF0010C0CFA00F3B1F800C00CEA030630
:100320009E4220D183004FF00F0C0CFA03F7BC4320
:1003300005FA03FC4CEA040491F803C0BCF1280F51
:1003400006D14FF0010C0CFA00FCC2F814C00AE010
:1003500091F803C0BCF1480F05D14FF0010C0CFA25
:1003600000FCC2F810C0401C0828D1D31460B1F8BA
:1003700000C0BCF1FF0F34DD546800202EE000F116
:10038000080C4FF0010808FA0CF3B1F800C00CEAB1
:1003900003069E4221D183004FF00F0C0CFA03F7A5
:1003A000BC4305FA03FC4CEA040491F803C0BCF119
:1003B000280F05D100F1080C08FA0CF8C2F81480D7
:1003C00091F803C0BCF1480F07D100F1080C4FF0C1
:1003D000010808FA0CF8C2F81080401C0828CED397
:1003E0005460BDE8F0810000F0B50A460023002407
:1003F0000021002500F00046B6F1004F02D11D4E4D
:10040000F16901E01B4E7168C0F3034583B200F44B
:100410004016B6F5401F08D121F07061154E766880
:1004200026F07066134F7E6012E000F48016B6F579
:10043000801F06D1032606FA05F4A14341F070613E
:1004400006E0460D360103FA06F6B14341F070614D
:1004500022B1460D360103FA06F6314300F000469C
:10046000B6F1004F02D1034EF16101E0014E71601F
:10047000F0BD00000000014041617047016170471C
:1004800000BFFEE708B50420ADF8000010208DF88D
:10049000030003208DF8020069460248FFF718FFA9
:1004A00008BD00000014014000BFFEE700B589B0A0
:1004B0004FF4E070ADF8040018208DF80700032019
:1004C0008DF8060001A92848FFF702FF01212748FF
:1004D000FFF78AFF4FF47C60ADF8040010208DF820
:1004E000070003208DF8060001A92148FFF7F0FE60
:1004F0000020ADF81E00ADF81A00C720ADF81C00B2
:100500004720ADF8180006A91A4800F0EDFD4FF499
:100510008070ADF814006020ADF808000020ADF840
:1005200010000120ADF80A000020ADF80C004FF4D7
:10053000FA70ADF80E0002A90E4800F0E7FC642046
:10054000ADF80E0002A90B4800F02CFDC820ADF854
:100550000E0002A9074800F077FD0121054800F0D0
:10056000AEFC09B000BD000000100140000C1A00F4
:10057000000C01400004004010B54FF480710448A5
:10058000FFF77AFF4FF400710148FFF777FF10BDC6
:10059000000C014010B54FF480710448FFF76EFF66
:1005A0004FF400710148FFF767FF10BD000C0140D8
:1005B000704708B54FF4C06000F052F81C208DF869
:1005C000000001208DF803008DF8010003208DF854
:1005D0000200684600F00CF826208DF8000001208B
:1005E0008DF801008DF80200684600F001F808BDA2
:1005F00070B5002100230F22C47804B3154C246881
:1006000004F4E064C4F5E064210AC1F10403CA40C3
:10061000447804FA03F184781440214309010E4C14
:100620000678A155047804F01F050124AC40057834
:100630006D11AD0005F1E025C5F8004109E0047831
:1006400004F01F050124AC40044D0678761145F8EE
:10065000264070BD0CED00E000E400E080E100E029
:1006600002490143024A1160704700000000FA0588
:100670000CED00E010B5002807DA0A07140E054A51
:1006800000F00F031B1FD45403E00A07130E024AA5
:10069000135410BD18ED00E000E400E001460148ED
:1006A000405C704768000020002004E00021034AFD
:1006B0001154411CC8B20928F8DB704768000020BB
:1006C00038B504460120009000201E4948700120E2
:1006D00000902EE0BDF80000204018B101201A491A
:1006E000086002E00020184908600120164908311E
:1006F00008600520FFF7E2FD00201449C1F8BC01A5
:100700000520FFF7DBFD01201049C1F8BC010846B8
:10071000D0F8300130B10B484078BDF800100843E4
:1007200008494870BDF800004FF6FF7101EA40002B
:100730000090BDF80000FF28CCDD1020FFF7BEFDC3
:1007400038BD000068000020B481214200802142B1
:1007500010B5FFF7A9FF00F0A5F81148C0781049BF
:10076000097940EA01200F490880002410E00E4872
:1007700010F81400401E012101FA00F0094909880F
:10078000084018B9601C0949087010BD601CC4B24B
:10079000102CECDB00200549087000BFF5E70000D5
:1007A000680000203E00002048000020400000209B
:1007B00010B50020134908601020FFF77FFD0120CD
:1007C000FFF77EFF4320FFF77BFF0020FFF778FF56
:1007D0000120FFF775FF0020FFF772FF0020FFF7F1
:1007E0006FFF0020FFF76CFF0020FFF769FF00207C
:1007F000FFF766FF01200449C1F8B8011020FFF798
:100800005DFD10BDB88121420080214210B500205D
:10081000134908601020FFF751FD0120FFF750FF3A
:100820004320FFF74DFF0020FFF74AFF0020FFF7AE
:1008300047FF5A20FFF744FF5A20FFF741FF5A2095
:10084000FFF73EFF5A20FFF73BFF5A20FFF738FF24
:1008500001200449C1F8B8011020FFF72FFD10BD99
:10086000B88121420080214208B54FF48050ADF894
:10087000000028208DF8030003208DF8020069464F
:100880000748FFF725FD4FF46040ADF80000102049
:100890008DF8030069460248FFF71AFD08BD000005
:1008A000000C01401CB500200190012000900020A8
:1008B0002549086025490878FFF702FF2349487851
:1008C000FFF7FEFE0220019036E00120009027E0B5
:1008D00001201D49091D08600520FFF7EFFC0020DD
:1008E0001B49C1F8BC010520FFF7E8FC01201849AD
:1008F000C1F8BC010846D0F8300150B115489DF848
:100900000410405CBDF80010084312499DF8042013
:100910008854BDF800004FF6FF7101EA40000090D6
:10092000BDF80000FF28D3DD1020FFF7C7FC9DF8BD
:100930000400401CC0B201909DF804000928C4DBEB
:100940000120014908601CBDB881214245000020FA
:10095000008021426800002010B500200A4908608C
:100960000A490878FFF7ACFE08494878FFF7A8FE67
:1009700001200749C1F8B80106484078732801D121
:10098000002010BD0120FCE7B88121424500002075
:10099000008021426800002010B500F00BF800F044
:1009A00009F800F007F8FFF703FF00F025F8FFF75C
:1009B0002DFF10BD10B500200D4908601020FFF775
:1009C0007DFC0120FFF77CFE4220FFF779FE00202E
:1009D000FFF776FE0020FFF773FE0020FFF770FEA2
:1009E00001200449C1F8B8011020FFF767FC10BDD1
:1009F000B88121420080214210B5002012490860D0
:100A00000120FFF75DFE4420FFF75AFE0020FFF7AC
:100A100057FE0020FFF754FEEE20FFF751FE0020A6
:100A2000FFF74EFE0020FFF74BFE0020FFF748FEC9
:100A30000020FFF745FE01200449C1F8B80110204D
:100A4000FFF73CFC10BD0000B8812142008021422C
:100A50007047000010B54FF480610448FFF70CFDAB
:100A60004FF400610148FFF709FD10BD000C014083
:100A700010B54FF480610448FFF700FD4FF40061AA
:100A80000148FFF7F9FC10BD000C014010B5012131
:100A9000044800F009F8012144F23D0000F014F888
:100AA00010BD00000300020029B1064AD2690243CA
:100AB000044BDA6104E0034AD2698243014BDA61F4
:100AC000704700000010024029B1064A92690243B3
:100AD000044B9A6104E0034A92698243014B9A6194
:100AE000704700000010024030B5002100220024B1
:100AF00000232D4D6D6805F00C0121B1042905D0AE
:100B0000082923D105E0294D056022E0274D056025
:100B10001FE0254D6D6805F47012234D6D6805F4D6
:100B20008034022505EB92421CB9214D55430560E6
:100B30000BE01D4D6D6805F400351DB11C4D55438E
:100B4000056002E0194D5543056002E0174D056050
:100B500000BF00BF144D6D6805F0F0010909154D87
:100B60006B5C0568DD4045600F4D6D6805F4E06124
:100B7000090A104D6B5C4568DD4085600A4D6D6863
:100B800005F46051C90A0B4D6B5C4568DD40C560DA
:100B9000054D6D6805F44041890B074D6B5CC568D8
:100BA000B5FBF3F5056130BD0010024000127A007C
:100BB00000093D00060000201600002070470000DC
:100BC0002DE9F04104460D46002613E014F8011B00
:100BD0000A4800F061FB002701E0781C87B2B7F5F6
:100BE0007A6F05DA4021054800F0DCFA0028F4D0DD
:100BF000701CC6B2AE42E9DBBDE8F08100440040A3
:100C000008B50320ADF8000004208DF80300694604
:100C10000148FFF75DFB08BD000C014000B585B041
:100C20000C20ADF8100018208DF8130003208DF86B
:100C3000120004A91048FFF74BFB4FF41650009028
:100C40000020ADF80C000C20ADF80A000020ADF833
:100C50000800ADF80600ADF804006946074800F04A
:100C6000AFFA0121054800F091FA4021034800F055
:100C700099FA05B000BD00000008014000440040A2
:100C80000149088070470000340400400149088091
:100C9000704700003804004010B500F001F810BDA6
:100CA0000CB50020019000903348006840F480307B
:100CB0003149086000BF3048006800F400300090FF
:100CC0000198401C0190009818B90198B0F5A06FE8
:100CD000F1D12948006800F4003010B101200090E3
:100CE00001E0002000900098012843D123480068CB
:100CF00040F01000214908600846006820F0030019
:100D000008600846006840F0020008601A48406821
:100D1000194948600846406848600846406840F401
:100D2000806048600846406820F47C1048600846AF
:100D3000406840F4E81048600846006840F0807061
:100D4000086000BF0C48006800F000700028F9D06F
:100D50000948406820F00300074948600846406899
:100D600040F00200486000BF0348406800F00C00FB
:100D70000828F9D10CBD00000010024000200240FC
:100D80000EB50020ADF80600ADF802004FF47A7001
:100D9000ADF804004720ADF8000069464FF08040F0
:100DA00000F0A2F901221146900700F0A5F80121F8
:100DB000880700F084F80EBD10B54824B4F1807F98
:100DC00001D3012011E024F07F40401E4FF0E021CC
:100DD00048610F214FF0FF30FFF74CFC00204FF02F
:100DE000E021886107200861002008B100BFFEE70C
:100DF0000321081FFFF73EFC10BD000004480068F7
:100E000020B103480068401E014908607047000097
:100E10001C00002010B51348006840F00100114983
:100E2000086008464068104908400E494860084676
:100E300000680E4908400B4908600846006820F425
:100E4000802008600846406820F4FE0048604FF4A7
:100E50001F008860FFF720FF4FF000600449086022
:100E600010BD0000001002400000FFF8FFFFF6FE7A
:100E700008ED00E010B50121880700F02CF8B0B1B2
:100E80000121880700F018F809480078322806D1B7
:100E900000200749087001200649087007E005484E
:100EA000007820B902480078401C0149087010BD44
:100EB0000300002002000020CA430282704721B1D3
:100EC000028842F00102028004E002884FF6FE73BD
:100ED0001A400280704730B50246002000230024EB
:100EE000158A05EA0103958905EA010413B10CB1DD
:100EF000012000E0002030BD1AB183890B438381BB
:100F000002E083898B4383817047000070B5002421
:100F100000220023058C4FF6FE7635400584028CB6
:100F20008388048B4FF68F752C40B51E2C400D889E
:100F30002C43751E2A400D892A434D882A43144D9F
:100F4000A8420BD0134DA84208D0134DA84205D09B
:100F5000124DA84202D0124DA84213D14FF6F77598
:100F60002A404D892A434FF6FB752A408D882A4333
:100F70004FF6FF652B404FF6FF552B408D892B43D5
:100F8000CD892B4383800483CD888586028470BD00
:100F9000002C014000340140004001400044014069
:100FA0000048014070B5002400220023058C4FF654
:100FB000EF7635400584028C8388048B48F6FF75F4
:100FC0002C404FF6FF452C400D884FF6FF7606EA81
:100FD00005252C434FF6DF752A400D8906EA0515D5
:100FE0002A434D8806EA05152A43154DA84202D02A
:100FF000144DA8421DD14FF67F752A404D894FF6FA
:10100000FF7606EA05152A434FF6BF752A408D88FC
:1010100006EA05152A434FF6FF352B404FF2FF75C0
:101020002B408D8906EA85052B43CD8906EA850587
:101030002B4383800483CD880587028470BD000024
:10104000002C01400034014070B500240022002330
:10105000058C4FF6FF6635400584028C8388848BAF
:101060004FF68F752C404FF6FC752C400D882C43A5
:101070004FF6FF552A400D894FF6FF7606EA052503
:101080002A434D8806EA05252A43154DA84202D079
:10109000144DA8421DD14FF2FF752A404D894FF6DD
:1010A000FF7606EA05252A434FF6FF352A408D884C
:1010B00006EA05252A434EF6FF752B404DF6FF75CF
:1010C0002B408D8906EA05152B43CD8906EA0515C7
:1010D0002B4383808483CD888587028470BD000084
:1010E000002C014000340140002202881D4B984230
:1010F0000ED01D4B98420BD0B0F1804F08D01B4B47
:10110000984205D01A4B984202D01A4B984204D10B
:101110004FF68F731A404B881A43174B984207D0EB
:10112000164B984204D04FF6FF431A40CB881A431F
:1011300002808B8883850B8803850A4B98420BD0ED
:10114000094B984208D00E4B984205D00D4B98425F
:1011500002D00D4B984201D10B7A03860123838282
:1011600070470000002C01400034014000040040A2
:1011700000080040000C0040001000400014004037
:1011800000400140004401400048014021B18289F3
:1011900042F40052828104E082894DF6FF731A40C6
:1011A0008281704702460020B1F5007F00D100BF68
:1011B00013880B400BB1012000E0002070470000B5
:1011C0002DE9F04786B005460E460024A24600BF32
:1011D000A1460027B08900B100BF2F462C8A4CF6EB
:1011E000FF700440F08804432C82AC894EF6F31063
:1011F0000440B08831890843718908430443AC81B5
:10120000AC8A4FF6FF400440B0890443AC8201A889
:10121000FFF76AFC1F48874202D1DDF810A001E009
:10122000DDF80CA0A88900F4004040B10AEBCA0028
:1012300000EB0A1031684900B0FBF1F807E00AEB57
:10124000CA0000EB0A1031688900B0FBF1F8642095
:10125000B8FBF0F004012009642101FB1089A88982
:1012600000F4004040B1322000EBC900B0FBF1F0C7
:1012700000F00700044308E0322000EB091064216D
:10128000B0FBF1F000F00F0004432C8106B0BDE884
:10129000F087000000380140C1F3080282807047E7
:1012A00000BFFEE7FFF7F2FBFFF786FDFEF7C9FF81
:1012B000FFF7E8F8FFF77DF93220FFF7E1FC322075
:1012C000FFF7E4FCE6E074480078012825D1FFF739
:1012D0003FFAFFF741FBA0B90820FFF7DFF96F499C
:1012E00008700720FFF7DAF96D4908700620FFF74C
:1012F000D5F96C4908700520FFF7D0F96A490870E4
:1013000008E07F20684908706649087064490870E1
:10131000624908700020604908706448007800281D
:101320004DD062480078102802D1FEF79FFFB1E04F
:101330005E4800780E2802D1FEF7A4FFAAE05B48C1
:10134000007805280BD15020FFF79AFCFFF722F90F
:101350006420FEF7A5FF0020FFF792FC9AE05348B7
:10136000007807280BD13220FFF78AFCFFF704F939
:101370006420FEF795FF0020FFF782FC8AE04B48CF
:1013800000780D280BD13220FFF780FCFFF770FBAF
:101390006420FEF785FF0020FFF778FC7AE04348E1
:1013A00000780F2876D13220FFF770FCFFF752FB50
:1013B0006420FEF775FF0020FFF768FC6AE03748FD
:1013C00000787F380A2814DD344800787F3864219B
:1013D00048437F2190FBF1F084B22046FFF750FC98
:1013E000FFF7CAF86420FEF75BFF0020FFF748FC18
:1013F00050E02A480078C0F17F000A2815DD274810
:101400000078C0F17F00642148437F2190FBF1F018
:1014100084B22046FFF734FCFFF7BCF86420FEF7E7
:101420003FFF0020FFF72CFC34E01F4800787F3896
:101430000A2814DD1C4800787F38642148437F2146
:1014400090FBF1F084B22046FFF720FCFFF702FB8F
:101450006420FEF725FF0020FFF718FC1AE0124871
:101460000078C0F17F000A2814DD0F480078C0F131
:101470007F00642148437F2190FBF1F084B2204635
:10148000FFF704FCFFF7F4FA6420FEF709FF0020E1
:10149000FFF7FCFB17E700000200002042000020DD
:1014A00041000020430000204400002040000020B4
:1014B000D014000800000020680000002801000887
:1014C000381500086800002070060000440100087C
:1014D00000000000000000000000010203040102FF
:1014E00003040607080902040608000000000000C3
:1014F000FF09000000FF09000100FF09000200FFD2
:1015000009000300FF0B000100FF0B0000000000BA
:10151000000000000001420001000200030004007E
:10152000050006000700080009000A000B000C0077
:081530000D000E000F00100079
:04000005080000ED02
:00000001FF
